:100000000C94F7030C94FF2E0C942C2F0C941F04CB
:100010000C941F040C941F040C941F040C941F04D4
:100020000C941F040C941F040C941F040C941F04C4
:100030000C941F040C941F040C941F040C941F04B4
:100040000C94592F0C941F040C9458310C94AA3121
:100050000C941F040C941F040C941F040C941F0494
:100060000C94EF1D0C941F0425327500616D007017
:100070006D00253032753A253032750003033000AB
:1000800003033000030330000303300001010101CA
:100090000FF00000010101010FF000000203211028
:1000A00003166000020321100316600001031220F2
:1000B00006433000010312200643300003210110E3
:1000C00001077000020203300734400001010330D1
:1000D00004077000031202200761100001032110C1
:1000E0000207700002031220075220004869676867
:1000F0003A200053636F72653A00616D00706D00C5
:10010000253032643A2530326400253032643A2595
:1001100030326400253032643A2530326425630081
:10012000253032643A25303264004261636B00440A
:10013000697361626C6520436C6F636B66616365B4
:100140007300536574204272696768746E657373D7
:1001500000536574204461746500536574205469CC
:100160006D65005365742031322F323468206D6F15
:1001700064650053657474696E6773003132687228
:1001800000323468720031322F32346872206D6F61
:100190006465004261636B0044696D002A2000427F
:1001A0007269676874002A20004272696768746E19
:1001B0006573730020546574726973002044696725
:1001C0006974616C0020506F6E67004261636B0060
:1001D000436C6F636B6661636573004261636B00C0
:1001E0005365742044617465004261636B0025307F
:1001F00032643A25303264005365742054696D6569
:100200000026206D696331353900627920306D69CF
:100210006B65723000506F6E6720436C6F636B00CC
:1002200031393A31343A3339004F6374203139204F
:10023000323031360053756E005361740046726976
:10024000005468750057656400547565004D6F6E05
:1002500000446563004E6F76004F63740053657011
:1002600000417567004A756C004A756E004D6179F2
:1002700000417072004D617200466562004A616E15
:10028000001F1C1F1E1F1E1F1F1E1F1E1F00000001
:1002900000003E5B4F5B3E3E6B4F6B3E1C3E7C3E28
:1002A0001C183C7E3C181C577D571C1C5E7F5E1C36
:1002B00000183C1800FFE7C3E7FF0018241800FFF0
:1002C000E7DBE7FF30483A060E2629792926407FEA
:1002D000050507407F05253F5A3CE73C5A7F3E1CF9
:1002E0001C08081C1C3E7F14227F22145F5F005FE5
:1002F0005F06097F017F006689956A6060606060C3
:1003000094A2FFA29408047E040810207E20100806
:10031000082A1C08081C2A08081E101010100C1EA1
:100320000C1E0C30383E3830060E3E0E0600000023
:10033000000000005F00000007000700147F147F2A
:1003400014242A7F2A122313086462364956205047
:100350000008070300001C2241000041221C002A63
:100360001C7F1C2A08083E0808008070300008081E
:10037000080808000060600020100804023E51498F
:10038000453E00427F400072494949462141494D5E
:10039000331814127F1027454545393C4A494931E5
:1003A00041211109073649494936464949291E0064
:1003B000001400000040340000000814224114140E
:1003C000141414004122140802015909063E415D2B
:1003D000594E7C1211127C7F494949363E414141B8
:1003E000227F4141413E7F494949417F0909090135
:1003F0003E414151737F0808087F00417F41002042
:1004000040413F017F081422417F404040407F022D
:100410001C027F7F0408107F3E4141413E7F090955
:1004200009063E4151215E7F09192946264949495D
:100430003203017F01033F4040403F1F2040201F07
:100440003F4038403F631408146303047804036199
:1004500059494D43007F41414102040810200041A9
:1004600041417F0402010204404040404000030734
:10047000080020545478407F284444383844444489
:1004800028384444287F385454541800087E090200
:1004900018A4A49C787F0804047800447D400020C0
:1004A00040403D007F1028440000417F40007C0414
:1004B0007804787C080404783844444438FC1824D0
:1004C000241818242418FC7C0804040848545454A4
:1004D0002404043F44243C4040207C1C2040201C39
:1004E0003C4030403C44281028444C9090907C4440
:1004F00064544C440008364100000077000000417D
:1005000036080002010204023C2623263C1EA1A15B
:1005100061123A4040207A38545455592155557942
:100520004122545478422155547840205455794002
:100530000C1E527212395555555939545454593963
:10054000555454580000457C410002457D4200014D
:10055000457C407D1211127DF0282528F07C5455F1
:1005600045002054547C547C0A097F49324949494A
:10057000323A4444443A324A4848303A4141217A76
:100580003A42402078009DA0A07D3D4242423D3D40
:100590004040403D3C24FF2424487E4943662B2FA5
:1005A000FC2F2BFF0929F620C0887E090320545414
:1005B00079410000447D413048484A323840402269
:1005C0007A007A0A0A727D0D19317D2629292F2891
:1005D000262929292630484D4020380808080808CF
:1005E000080808382F10C8ACBA2F102834FA0000B9
:1005F0007B000008142A142222142A1408550055DE
:100600000055AA55AA55AAFF55FF55FF000000FF47
:1006100000101010FF00141414FF001010FF00FF52
:100620001010F010F0141414FC001414F700FF0064
:1006300000FF00FF1414F404FC141417101F101012
:100640001F101F1414141F00101010F000000000E1
:100650001F101010101F10101010F010000000FFDD
:10066000101010101010101010FF10000000FF14D8
:100670000000FF00FF00001F10170000FC04F4142E
:10068000141710171414F404F40000FF00F71414E6
:100690001414141414F700F7141414171410101F62
:1006A000101F141414F4141010F010F000001F1098
:1006B0001F0000001F14000000FC140000F010F0E8
:1006C0001010FF10FF141414FF141010101F00005E
:1006D0000000F010FFFFFFFFFFF0F0F0F0F0FFFF71
:1006E000FF0000000000FFFF0F0F0F0F0F38444402
:1006F0003844FC4A4A4A347E02020606027E027EE2
:100700000263554941633844443C04407E201E2026
:1007100006027E020299A5E7A5991C2A492A1C4CCB
:100720007201724C304A4D4D303048784830BC62CE
:100730005A463D3E494949007E0101017E2A2A2A46
:100740002A2A44445F444440514A444040444A5168
:10075000400000FF0103E080FF000008086B6B0809
:100760003612362436060F090F060000181800004E
:10077000001010003040FF0101001F01011E001990
:100780001D1712003C3C3C3C000000000000000033
:1007900000240027002A0000000000250028002B6C
:1007A00000000000002300260029000404040404C3
:1007B000040404020202020202030303030303010E
:1007C00002040810204080010204081020010204E5
:1007D00008102000000007000201000003040600CA
:1007E00000000000000000009A198B1C1033112437
:1007F0001FBECFEFD8E0DEBFCDBF15E0A0E0B1E077
:10080000EAE9F1E702C005900D92AA38B107D9F7DD
:1008100017E0AAE8B5E001C01D92A535B107E1F7E0
:1008200017E0CEEED7E004C02297FE010E94903878
:10083000C83ED107C9F70E9467330C94CB380C949B
:100840000000A0E0B0E0E7E2F4E00C949C38EC019A
:10085000A880B980CA80DB80A114B104C104D1048E
:1008600041F484E2A82E89EDB82E8BE5C82E87E0EE
:10087000D82EC601B5012DE133EF41E050E00E94D2
:10088000733827EA31E440E050E00E94FF377B01F3
:100890008C01C601B5012DE133EF41E050E00E942B
:1008A0007338CA01B9012CEE34EF4FEF5FEF0E94AD
:1008B000FF376E0D7F1D801F911F97FF04C0615091
:1008C000704080409048688379838A839B839B0132
:1008D000AC015F77B901CA01CDB7DEB7EAE00C948D
:1008E000B8380E942104089580E091E00E9421041C
:1008F0000895609300017093010180930201909329
:1009000003010895FB01DC0102C005900D924150E6
:100910005040D8F70895AEE0B0E0E1E9F4E00C947F
:10092000A2380D891E898F89988D97FF02C080E0BB
:1009300090E801979E838D831A8309838EE08C83D0
:100940009E01255E3F4FCE010196698D7A8DA901EA
:100950000E94BC044D815E8157FD0AC02F813885FD
:10096000421753070CF49A01020F131FF80110826B
:100970002E96E4E00C94BE38ABE0B0E0E2ECF4E09C
:100980000C9494383C012B015A01FC011782168209
:10099000838181FD03C06FEF7FEFC6C19AE0892E8E
:1009A0001E010894211C311CF3012381F20123FD57
:1009B000859123FF81912F01882309F4B2C18532EB
:1009C00039F423FD859123FF81912F01853229F48C
:1009D00090E0B3010E94AF06E7CF982FFF24EE24EA
:1009E0009924FFE1FF15D0F09B3269F09C3228F486
:1009F000903259F0933291F40EC09D3249F0903309
:100A000069F441E024C052E0F52A84E0F82A28C0C5
:100A100098E0F92A25C0E0E1FE2A22C0F7FC29C0AF
:100A2000892F80538A3070F4F6FE05C0989C902C74
:100A30001124980E15C0E89CE02C1124E80EF0E279
:100A4000FF2A0EC09E3229F4F6FC6BC140E4F42A62
:100A500007C09C3619F450E8F52A02C0983649F4CC
:100A6000F20123FD959123FF91912F01992309F024
:100A7000B8CF892F8554833018F08052833038F4F2
:100A800044E050E0A40EB51E5FE359830FC09336D7
:100A900031F0933779F0933509F056C020C0F50155
:100AA0008081898342E050E0A40EB51E610101E01F
:100AB00010E012C0F501C080D180F6FC03C06FEFDA
:100AC0007FEF02C0692D70E042E050E0A40EB51E39
:100AD000C6010E94A4068C015FE7F52214C0F5014F
:100AE000C080D180F6FC03C06FEF7FEF02C0692D9C
:100AF00070E042E050E0A40EB51EC6010E949906C7
:100B00008C0150E8F52AF3FE07C01AC080E290E09D
:100B1000B3010E94AF06EA948E2D90E008171907E2
:100B2000A8F30EC0F601F7FC8591F7FE81916F01E5
:100B300090E0B3010E94AF06E110EA94015010402A
:100B40000115110579F7EAC0943611F0993669F567
:100B5000F7FE08C0F501208131814281538184E094
:100B600090E00AC0F501808191819C01442737FD06
:100B70004095542F82E090E0A80EB91E9FE6F9221E
:100B800057FF09C050954095309521953F4F4F4FE5
:100B90005F4FE0E8FE2ACA01B901A1012AE030E076
:100BA0000E94DB06D82ED21840C0953729F41F2D9D
:100BB0001F7E2AE030E01DC01F2D197F9F3661F097
:100BC000903720F4983509F0ACC00FC0903739F059
:100BD000983709F0A6C004C028E030E00AC01061D0
:100BE00014FD146020E130E004C014FD166020E123
:100BF00032E017FF08C0F501608171818281938125
:100C000044E050E008C0F50180819181BC0180E0A2
:100C100090E042E050E0A40EB51EA1010E94DB0668
:100C2000D82ED2188FE7F82EF122F6FE0BC05EEF19
:100C3000F522D91438F4F4FE07C0F2FC05C08FEE9B
:100C4000F82202C01D2D01C0192DF4FE0DC0FE01B9
:100C5000ED0DF11D8081803319F499EEF92208C061
:100C60001F5FF2FE05C003C08F2D867809F01F5F5D
:100C70000F2DF3FC14C0F0FE0FC01E1510F09D2CBC
:100C80000BC09D2C9E0C911A1E2D06C080E290E098
:100C9000B3010E94AF061F5F1E15C0F304C01E15EE
:100CA00010F4E11A01C0EE2404FF0FC080E390E0CD
:100CB000B3010E94AF0602FF1DC001FD03C088E71B
:100CC00090E00EC088E590E00BC0802F867891F010
:100CD00001FF02C08BE201C080E2F7FC8DE290E0F0
:100CE000B3010E94AF0606C080E390E0B3010E940A
:100CF000AF069A94D914C0F3DA94F101ED0DF11D09
:100D0000808190E0B3010E94AF06DD20A9F706C004
:100D100080E290E0B3010E94AF06EA94EE20C1F7B2
:100D200043CEF30166817781CB012B96E2E10C94EF
:100D3000B038FC010590615070400110D8F78095E3
:100D400090958E0F9F1F0895FC0161507040019097
:100D50000110D8F7809590958E0F9F1F08950F93DF
:100D60001F93CF93DF938C01EB018B8181FF1BC01D
:100D700082FF0DC02E813F818C819D81281739070C
:100D800064F4E881F9810193F983E88306C0E8857A
:100D9000F985802F0995892B31F48E819F810196E9
:100DA0009F838E8302C00FEF1FEFC801DF91CF91A9
:100DB0001F910F910895FA01AA27283051F120318F
:100DC00081F1E8946F936E7F6E5F7F4F8F4F9F4FDF
:100DD000AF4FB1E03ED0B4E03CD0670F781F891F21
:100DE0009A1FA11D680F791F8A1F911DA11D6A0FEF
:100DF000711D811D911DA11D20D009F468943F91A2
:100E00002AE0269F11243019305D3193DEF6CF01A0
:100E10000895462F4770405D4193B3E00FD0C9F766
:100E2000F6CF462F4F70405D4A3318F0495D31FDD3
:100E30004052419302D0A9F7EACFB4E0A695979526
:100E4000879577956795BA95C9F7009761057105FC
:100E500008959B01AC010A2E069457954795379546
:100E60002795BA95C9F7620F731F841F951FA01DA0
:100E700008950F93FC01718360835383428383E061
:100E800084838583268307830F910895EF92FF92D1
:100E90000F931F93CF93DF93FC01DB018D919C9106
:100EA0001197608171814281538124810581EC0118
:100EB000EE85FF85CD0130E010E0A1E0EA2EF12CB7
:100EC0000995DF91CF911F910F91FF90EF900895B9
:100ED0000F931F93CF93DF938C01FC016681848174
:100EE00016162CF420E830E0281B310904C0282F06
:100EF00030E020583040F8018781772767FD7095F2
:100F0000992787FD90950E943E38269FE001279FF4
:100F1000D00D369FD00D112482819381C80FD91F27
:100F2000D7FF03C0D095C195DF4FBE01B6E07595E0
:100F30006795BA95E1F7882777FD8095982F0E94ED
:100F4000BB360E94F6360E948D369E012F7330709C
:100F500060FD03C0F801208704C080E4821BF80113
:100F60008087DF91CF911F910F910895EF92FF92AB
:100F70000F931F93CF93DF93EC018A015E81852F3E
:100F8000992787FD9095A881B981A80FB91FB983CA
:100F9000A8838F81E82EFF24E7FCF0948A819B814F
:100FA000E80EF91EFB82EA8257FF12C0FB01848122
:100FB00090E08A179B07A4F122813381E216F306A1
:100FC0007CF18581280F311D2E153F054CF11EC087
:100FD000552359F18C819D01280F311DF801448161
:100FE00080E890E0841B910928173907ACF0228132
:100FF00033818D81B701680F711D6217730764F02B
:101000008581280F311D2E153F0534F051955E83E3
:10101000CE010E94680709C0A038B10544F405C09C
:101020008C81A80FB11DB7FD02C030E001C031E0D6
:101030004A815B812C8180E490E0821B91098417B6
:10104000950714F057FF03C08F8181958F83832FFD
:10105000DF91CF911F910F91FF90EF900895FC01C8
:1010600012821182638380818E7F808380818D7F55
:1010700080830895FC018081826080830895FC0153
:10108000808181700895FF920F931F93CF93DF9318
:10109000EC01F8940E94AD2F9B01AC018B0188817B
:1010A00080FD13C0888181FF10C089819A81B901B8
:1010B000681B790B6F31710540F0888181608883EE
:1010C0003A832983FF24F39401C0FF2488818D7F14
:1010D0008883888180FF14C089819A819801281BA8
:1010E000390B2F31310560F08B810E940431892B3F
:1010F00039F488818E7F88831A830983FF24F394CF
:1011000078948F2DDF91CF911F910F91FF900895CB
:10111000089508954F925F926F927F928F929F925F
:10112000AF92BF92CF92DF92EF92FF920F931F93F5
:10113000DF93CF93CDB7DEB729970FB6F894DEBF14
:101140000FBECDBF3B012091C4058091CD05882302
:1011500041F4822F6CE00E941E38292F992309F454
:101160002CE08DB79EB70A970FB6F8949EBF0FBEBE
:101170008DBFEDB7FEB731968E010F5F1F4FADB734
:10118000BEB712961C930E93119789E090E093835B
:10119000828382E790E095838483268317828091FF
:1011A000C505808711860E948B04EDB7FEB73A967D
:1011B0000FB6F894FEBF0FBEEDBFC30161E070E053
:1011C0000E94A528C30162E00E949F28C30165E038
:1011D00070E042E150E00E949928562C472CC30150
:1011E000B8010E94C434C30161E00E949F2880912D
:1011F000CD058823A1F4C30161E470E049E150E02A
:101200000E9499288091C4058C3020F0C3016FE6BC
:1012100070E003C0C3016CE670E00E94A933D30103
:10122000ED91FC918684978400D000D06091C60532
:1012300070E080E090E020E830E040E050E0EDB782
:10124000FEB7218332834383548320E030E040E0C3
:1012500050E0FCE3EF2EF12C012D112DAA24BB242C
:1012600065010E94C7348B019C010F900F900F9075
:101270000F90C30160E070E043E250E0980103E0AA
:1012800010E0E1E0EE2EF12CF4010995C30162E5D6
:1012900070E042E150E00E94992881EC95E00E94C4
:1012A0008A20682F81EC95E00E94F91ABC01852DF7
:1012B000942D0E94A933852D942D60E20E94CC3399
:1012C0006091C9057091CA058091CB059091CC05BC
:1012D0000E948D369B01AC01852D942D622F4AE032
:1012E00050E00E949434C30168E770E043E150E0AD
:1012F00021E030E001E010E00E94BD22C30168E57A
:1013000070E04AE150E00E9499288DB79EB7089797
:101310000FB6F8949EBF0FBE8DBFEDB7FEB73196E6
:101320008E010F5F1F4FADB7BEB712961C930E9381
:10133000119789E090E09383828388E690E095831B
:1013400084838091C305868317820E948B04EDB746
:10135000FEB738960FB6F894FEBF0FBEEDBF852DD1
:10136000942DB8010E94C434852D942D60E20E9412
:10137000CC3381EC95E06091C2050E94B51ABC01A6
:10138000852D942D0E94A93329960FB6F894DEBFBF
:101390000FBECDBFCF91DF911F910F91FF90EF90C6
:1013A000DF90CF90BF90AF909F908F907F906F9085
:1013B0005F904F900895FC01618F428F0895EF92E6
:1013C000FF920F931F93CF93DF93EC01162F072FFC
:1013D000898D8A3020F49CE2E92EF12C03C08EE145
:1013E000E82EF12C812F902F62E00E949F28812F00
:1013F000902F61E070E00E94A528812F902FB70107
:1014000042E050E00E949928812F902F698D4AE098
:1014100050E00E94A634812F902F6AE470E042E0F1
:1014200050E00E949928812F902F6A8D4AE050E069
:101430000E94A634DF91CF911F910F91FF90EF9002
:101440000895BF92CF92DF92EF92FF920F931F9376
:10145000CF93DF936C01EB0102960E947819C601CD
:101460000996BE010E947819F601B28CF1E0BF2204
:10147000E881F9814B2D50E0440F551F440F551F53
:101480000684F785E02DCE016FE370E022E030E0C6
:1014900004E010E0A1E0EA2EF12C099582E0B80EFC
:1014A000EFE0EB1528F7C601BE010E94DF09C60177
:1014B0004096BE010E944607DF91CF911F910F9188
:1014C000FF90EF90DF90CF90BF900895AF92BF92C2
:1014D000CF92DF92EF92FF920F931F93CF93DF9300
:1014E000EC01F62EE42E8B8D882311F0815051C033
:1014F00092E0A92EB12CAC0EBD1E688D4E898A8D4E
:101500008E1511F420E005C020E0898D8F1509F4B7
:1015100021E0C5010E942D198E01075F1F4F20E0B9
:10152000898D8F1121E0C801688D4E890E942D1987
:1015300080E1C82ED12CCC0EDD1EC601B501A8015C
:101540000E94B607882331F1F98EEA8E8F8120E45C
:1015500030E0281B3109442737FD4095542F60E0C7
:1015600070E080E090E00E9432357D836C832E81B4
:10157000288B198A2F812695620F711D7B8B6A8BB0
:101580008E8987FF02C081958E8BC6010E946807F5
:1015900082E38B8FDF91CF911F910F91FF90EF909E
:1015A000DF90CF90BF90AF900895CF92DF92EF92EF
:1015B000FF920F937C01FC0189E295E08193919366
:1015C000CF0160E070E040E050E00E942219C701C6
:1015D00009966EE770E042E350E00E94221920E194
:1015E000C22ED12CCE0CDF1CC60162E070E042E0BE
:1015F00050E022E002E00E943907F701118E128EBE
:10160000138E878120E430E0281B3109442737FD01
:101610004095542F60E070E080E090E00E94323509
:10162000F701758364832681208B118A2781269593
:10163000620F711D738B628BC6010E9468070F9148
:10164000FF90EF90DF90CF900895AF92BF92CF922E
:10165000DF92EF92FF920F931F93CF93DF93FC01E2
:10166000552747FD509585A5992787FD9095480FEB
:10167000591F443151050CF063C0E62EFF24E7FCEE
:10168000F09484A5992787FD9095E80EF91EF7FC44
:1016900057C08AE0E816F1040CF052C082A5A82FCA
:1016A000B0E0AA0FBB1FAA0FBB1FA20FB11DEA011A
:1016B0002196CC0FDD1FCE0FDF1F8A01AA0FBB1FA3
:1016C000AA0FBB1F91E0A92EB12C84E0C82ED12C0B
:1016D000CA0EDB1EFD01E458FF4FE491B70140E064
:1016E00050E0F0E0CF01042E02C0959587950A9452
:1016F000E2F780FF15C00431110514F517FD20C075
:101700006A307105ECF4C501062E02C0880F991FDE
:101710000A94E2F72881398182239323892B81F46B
:101720004F5F5F4F6F5F7F4F44305105D9F6119681
:1017300022960F5F1F4FAC15BD0561F680E001C01A
:1017400081E0DF91CF911F910F91FF90EF90DF909B
:10175000CF90BF90AF9008950F931F93CF93DF93D7
:10176000DC0160E070E001E010E09A96EC919A975D
:10177000F0E0EE0FFF1FEE0FFF1F9B968C919B97E3
:10178000E80FF11DEE0FFF1FEE0FFF1FE60FF71F13
:10179000E458FF4FE49140E050E0CE2FD0E0CE017E
:1017A000042E02C0959587950A94E2F780FF22C027
:1017B0009D96EC919D97FF27E7FDF095E60FF71FAB
:1017C0003196EE0FFF1FEA0FFB1F9C968C919C97A2
:1017D000992787FD9095840F951F980102C0220FCD
:1017E000331F8A95E2F7C90120813181822B932B27
:1017F000918380834F5F5F4F4430510581F66F5F67
:101800007F4F6430710509F0B0CFDF91CF911F9108
:101810000F910895CF93DF93EC0123E1E22FF0E0E5
:101820003196EE0FFF1FEC0FFD1F808191818F5FBE
:101830009340E1F48EA59FA58C599F4F9FA78EA73B
:10184000322FE32FF0E0DF011196AA0FBB1FAC0F80
:10185000BD1FEE0FFF1FEC0FFD1F808191818D9347
:101860009C93315071F71B821A822F5F2150B1F681
:10187000DF91CF9108956F927F928F929F92AF9256
:10188000BF92CF92DF92EF92FF920F931F93CF936D
:10189000DF937C01DC019A968C91C82FD0E0CC0FAD
:1018A000DD1FCC0FDD1FC20FD11DCC0FDD1FCC0FF4
:1018B000DD1F70E000E010E0A42EBB24A7FCB09474
:1018C000C62EDD24C7FCD094F1E08F2E912CF801B8
:1018D000EC0FFD1FE458FF4FE49140E050E06E2E06
:1018E00077244C5F5F4FC301042E02C09595879506
:1018F0000A94E2F74450504080FF2CC0F70185A5C0
:10190000A82FBB27A7FDB095AA0DBB1DA00FB11F27
:10191000A431B105F8F484A5992787FD90958C0D25
:101920009D1D840F951F8A309105A4F497FD12C068
:10193000940102C0220F331F8A95E2F71196AA0F75
:10194000BB1FAE0DBF1D8D919C9128233923232BE6
:1019500009F47F5F4F5F5F4F4430510511F60F5F11
:101960001F4F0430110509F0B2CF872FDF91CF91BF
:101970001F910F91FF90EF90DF90CF90BF90AF90AD
:101980009F908F907F906F900895AF92BF92CF926B
:10199000DF92EF92FF920F931F93CF93DF93EC01AF
:1019A000AA24DD24BB2400E08AA5882369F08130C5
:1019B00039F4002361F0023051F0EE24E3940CC0BE
:1019C000002341F0023031F092E0E92E05C084E0BE
:1019D000E82E02C013E0E12ECD2CFF2425C0DF2C21
:1019E0008CA56F2D681BCE01412F202F0E94250B47
:1019F000882389F08CA56F2D681B412F4150CE01A3
:101A0000202F0E943B0C412F481B4E0DA41634F48E
:101A1000A42EB02E04C01F5F143109F7DC2CF39400
:101A20008AE0F81619F0CD2C11E0D9CF0F5F043001
:101A300009F0BACFD8AAB9AADF91CF911F910F911F
:101A4000FF90EF90DF90CF90BF90AF9008952F92CE
:101A50003F924F925F926F927F928F929F92AF923E
:101A6000BF92CF92DF92EF92FF920F931F93DF937B
:101A7000CF93CDB7DEB72A970FB6F894DEBF0FBE6F
:101A8000CDBF1C016B01DB01ED91FC910084F18560
:101A9000E02DCB016DE070E040E050E02CE330E061
:101AA00001E010E00995D601ED91FC910084F185EB
:101AB000E02DC6016DE270E040E050E02CE330E044
:101AC0000995D601ED91FC910284F385E02DC601C4
:101AD0006DE070E04CE350E021E230E00995210137
:101AE0008824992438C081E090E00A2C02C0880F35
:101AF000991F0A94E2F7F201228133818223932312
:101B0000892B91F0D601ED91FC910684F785E02DAB
:101B1000C601B30149855A8522E030E002E010E0B9
:101B2000A1E0EA2EF12C09950894A11CB11CE3E078
:101B3000F0E06E0E7F1EFAE0AF16B104A1F682E06F
:101B400090E0480E591EA3E0B0E08A0E9B1EBCE355
:101B50008B16910441F089869A86AA24BB249FE0C3
:101B6000692E712CC0CF88249924D1019A96EC91CA
:101B70009A97F0E0EE0FFF1FEE0FFF1F9B968C91E0
:101B8000E80FF11DEE0FFF1FEE0FFF1FE80DF91D0F
:101B9000E458FF4FE491AA24BB246E2E7724C3019E
:101BA0000A2C02C0959587950A94E2F780FF2BC016
:101BB000D601ED91FC91D1019C968C919C9799272F
:101BC00087FD90958A0D9B1DBC01660F771F680FDE
:101BD000791F615F7F4F9D968C91992787FD909526
:101BE000880D991DAC01440F551F480F591F0684DD
:101BF000F785E02DC60122E030E002E010E0A1E030
:101C0000EA2EF12C09950894A11CB11CB4E0AB1686
:101C1000B10429F60894811C911CE4E08E1691040D
:101C200009F0A3CFC60161E070E00E94A528C601BB
:101C300066E370E040E050E00E949928C60162E04F
:101C40000E949F288091CD058823F9F08DB79EB71B
:101C50000A970FB6F8949EBF0FBE8DBFEDB7FEB7C3
:101C60003196CE010196ADB7BEB712969C938E9376
:101C7000119787E090E0938382838AE091E09583D7
:101C800084838091C405868325C08091C4056CE05F
:101C90000E941E38292F992309F42CE08DB79EB796
:101CA0000A970FB6F8949EBF0FBE8DBFEDB7FEB773
:101CB0003196CE010196ADB7BEB712969C938E9326
:101CC000119787E090E09383828380E091E0958391
:101CD0008483268317828091C505808711860E94A0
:101CE0008B04EDB7FEB73A960FB6F894FEBF0FBE61
:101CF000EDBFFC2CED2CC601BE016F5F7F4F0E9433
:101D0000C434C60161E00E949F288091CD058823DC
:101D1000A1F4C60163E770E048E050E00E94992812
:101D20008091C4058C3020F0C6016DEF70E003C0D7
:101D3000C6016AEF70E00E94A933C60167E370E054
:101D400041E150E00E94992881EC95E00E948A20B0
:101D5000682F81EC95E00E94F91ABC018F2D9E2D11
:101D60000E94A933C60167E670E041E150E00E949D
:101D700099286091C9057091CA058091CB05909111
:101D8000CC050E948D369B01AC018F2D9E2D622FBC
:101D90004AE050E00E949434C60165E770E041E1FA
:101DA00050E021E030E001E010E00E94BD22C601D9
:101DB00067E370E049E150E00E9499288F2D9E2D45
:101DC0006091C3054AE050E00E9494348F2D9E2D0F
:101DD00060E20E94CC3381EC95E06091C2050E94E4
:101DE000B51ABC018F2D9E2D0E94A9338F2D9E2DDB
:101DF00060E20E94CC336091C10570E06053784F7F
:101E00008F2D9E2D4AE050E00E948334C60161E090
:101E10000E949F28C60167E370E048E250E00E94FC
:101E200099288F2D9E2D63EF70E00E94A933D10178
:101E30009E966D917C919F978F2D9E2D4AE050E04C
:101E40000E948334C60167E370E040E350E00E94E3
:101E500099288F2D9E2D6CEE70E00E94A933609121
:101E6000D1057091D2058F2D9E2D4AE050E00E9441
:101E700083342A960FB6F894DEBF0FBECDBFCF9144
:101E8000DF911F910F91FF90EF90DF90CF90BF9067
:101E9000AF909F908F907F906F905F904F903F900A
:101EA0002F900895CF93DF93EC019CA588A99817F4
:101EB0000CF07BC0CE0161E040E02BA50E94250B19
:101EC000882309F072C08CA58F5F0AC0CE016FEF26
:101ED00040E02BA50E94250B882319F48CA5815086
:101EE0008CA72BA589A9281791F030E02F5F3F4FD1
:101EF00023703070CE0160E040E00E94250B882303
:101F000031F48BA590E00196837090708BA7CE0181
:101F100060E041E02BA50E94250B882309F441C015
:101F2000CE010E94AC0B8EA59FA505969FA78EA7FC
:101F3000CE010E940A0C1DA685E08CA71BA660E0BE
:101F400070E080E090E027E030E040E050E00E9468
:101F500032356AA7CE0160E040E02BA50E94250B38
:101F60008823D9F02EA53FA58091D1059091D20567
:101F70008217930740F43093D2052093D10581EC6A
:101F800095E00E94901BCE010296FC0188E2DF01E1
:101F90001D928A95E9F71FA61EA6CE010E94C50CC8
:101FA0000AC08DA58F5F8DA706C09CA588A989173B
:101FB0000CF097CF8BCFDF91CF910895CF93DF9324
:101FC000DC0183E395E011969C938E939A961C9284
:101FD0009A979B961C929B9785E09C968C939C97D6
:101FE0009D961C929D979F961C921E929E97D096AE
:101FF0008C93D097D1961C92D197CD010296FC017B
:1020000088E2EF0119928A95E9F7CD010E94C50C8B
:10201000DF91CF91089590938B0580938A05089561
:102020008F929F92AF92BF92CF92DF92EF92FF92E8
:102030000F931F93DF93CF93CDB7DEB728970FB6DB
:10204000F894DEBF0FBECDBF5B016A01DB01ED91ED
:10205000FC910484F585E02DCB0160E070E040E068
:1020600050E020E830E000E410E0A1E0EA2EF12C9E
:102070000995C50161E070E00E94A528C50161E0F5
:102080000E949F28C50162E070E042E050E00E949B
:1020900099289A2C8B2CC501B6010E94A9337C018A
:1020A000EE0CFF1CE80EF91E0894E11CF11CEE0C6E
:1020B000FF1CD501ED91FC910284F385E02DC50153
:1020C00060E070E04AE050E0970101E010E009951F
:1020D000D501ED91FC910084F185E02DC501B7019A
:1020E00040E050E02AE030E009958091CD0588235A
:1020F00011F425E201C02FE1C22EDD24D501ED91BE
:10210000FC916EE770E06C197D0996012E5F3F4FE0
:102110000684F785E02DC50140E050E00AE010E0BC
:10212000A1E0EA2EF12C0995D501ED91FC91B601C3
:102130006095709560587F4F96012F5F3F4F0284E6
:10214000F385E02DC5014AE050E001E010E009957B
:10215000C50160E070E041E050E00E94AB28809152
:10216000CD05882391F160E870E06C197D09C50107
:1021700042E050E00E9499288DB79EB70A970FB6AB
:10218000F8949EBF0FBE8DBFEDB7FEB73196CE015E
:102190000196ADB7BEB712969C938E93119787E0C8
:1021A00090E09383828380E291E0958384838091A1
:1021B000C405868317828091C505808711860E9499
:1021C0008B048DB79EB70A9640C060E870E06C192A
:1021D0007D09C50142E050E00E9499283091C40574
:1021E000832F6CE00E941E38292F992309F42CE0DC
:1021F0006091C5053C3018F441E450E002C040E570
:1022000050E0ADB7BEB71C970FB6F894BEBF0FBE77
:10221000ADBFEDB7FEB73196CE01019612969C93F5
:102220008E93119787E090E09383828384E191E01D
:10223000958384832683178260871186538742871C
:102240000E948B048DB79EB70C960FB6F8949EBF74
:102250000FBE8DBF892D982DBE016F5F7F4F0E94ED
:10226000C43428960FB6F894DEBF0FBECDBFCF9111
:10227000DF911F910F91FF90EF90DF90CF90BF9073
:10228000AF909F908F9008950F931F93CF93DF93FC
:1022900020918A0530918B05273031050CF07AC0EA
:1022A000C091D705D091D8052097A1F08881998158
:1022B0008217930709F46EC0892B29F4CE010E947E
:1022C000D712CE0101C0CE010E9479331092D805F9
:1022D0001092D70580918A0590918B0583309105E6
:1022E00049F18430910554F48130910589F08230B0
:1022F0009105BCF4892B09F441C04CC0853091058F
:1023000059F185309105FCF0069709F043C02DC0C6
:1023100083E090E00E947C33182F092F0E947913EC
:1023200035C082E090E00E947C33182F092F0E9474
:1023300058142CC083E090E00E947C33182F092FA2
:102340000E94AE1723C083E090E00E947C33182FD8
:10235000092F0E944E161AC083E090E00E947C3341
:10236000182F092F0E94CA1411C083E090E00E9428
:102370007C33182F092F0E94881508C085E090E053
:102380000E947C33182F092F0E9452131093D705F7
:102390000093D805DF91CF911F910F910895FC0113
:1023A0008081918183309105E9F0843091054CF46E
:1023B0008130910579F08230910584F4892B11F1F7
:1023C000089585309105B1F0853091057CF0069730
:1023D000E1F414C0CF010E9434140895CF010E948B
:1023E000BA140895CF010E94B3180895CF010E9436
:1023F00039170895CF010E9465150895CF010E94F5
:1024000034160895CF010E94D2120895FC018081F4
:10241000918183309105E9F0843091054CF481304D
:10242000910579F08230910584F4892B11F108959A
:1024300085309105B1F0853091057CF00697E1F487
:1024400014C0CF010E9483130895CF010E94BF14CE
:102450000895CF010E94B8170895CF010E94581621
:102460000895CF010E94D4140895CF010E949215BF
:102470000895CF010E9432130895FC01808191815B
:1024800083309105E9F0843091054CF48130910559
:1024900079F08230910584F4892B11F1089585300B
:1024A0009105B1F0853091057CF00697E1F414C0F8
:1024B000CF010E948D130895CF010E9461140895E9
:1024C000CF010E94C2170895CF010E94621608959D
:1024D000CF010E94DE140895CF010E949A1508953D
:1024E000CF010E94C6120895FC0180819181833042
:1024F0009105E9F0843091054CF48130910579F033
:102500008230910584F4892B11F125C08530910525
:10251000B1F0853091057CF00697E9F414C0CF0145
:102520000E9480130895CF010E945E140895CF0188
:102530000E94B5170895CF010E9455160895CF0146
:102540000E94D1140895CF010E948F150895CF01E4
:102550000E94AC1208950895FC016091C405809119
:10256000CD05882319F46D3008F06C500280F3819A
:10257000E02DA081B18112962D913C911397CF014E
:102580004091C505F901099581E00895FC01A281FA
:10259000B381ED91FC9111970480F581E02DCD017F
:1025A0000995089581E090E00E940B100895FC01C8
:1025B000828193810E94793308950F931F93CF9363
:1025C000DF93EC018A819B81009721F00E9479338F
:1025D0001B821A828C81813071F0813018F0823038
:1025E00001F515C08CE190E00E947C33182F092F73
:1025F0000E94D50A14C082E090E00E947C33FC0166
:102600008FE195E091838083FB83EA830AC082E3B4
:1026100090E00E947C33182F092F0E94DE0F1A834E
:102620000B836091C4058091CD05882319F46D302A
:1026300008F06C50AA81BB81ED91FC91119701903B
:10264000F081E02DCD014091C50509958C818093E5
:10265000CF0581EC95E00E94901BDF91CF911F91F7
:102660000F910895CF93DF93FC018091D005C82F7F
:10267000D0E02481822F90E0019663E070E00E9418
:102680003E38282FCE01022E02C0959587950A94D8
:10269000E2F780FFEFCF2483CF010E94DD12DF91AC
:1026A000CF910895CF93DF93EC01198218821B829A
:1026B0001A828091CF058C83833008F01C82CE0172
:1026C0000E94DD126091C4058091CD05882319F424
:1026D0006D3008F06C50EA81FB81A081B1812D91B1
:1026E0003C91CF014091C505F9010995DF91CF914A
:1026F0000895FC0181E090E0918380831282089527
:102700008091C8050895FC01828190E0019666E001
:1027100070E00E943E38828308956F927F929F926C
:10272000AF92BF92CF92DF92EF92FF920F931F93DF
:10273000CF93DF935C01EB0143E751E00E9410105F
:1027400090E0F5018281833008F091E09C2ECD2E3F
:10275000D92E692E77246CC0861997098C0123E045
:10276000000F111F2A95E1F7880F991F080F191FF5
:10277000A801435F5F4FCE0165E070E00E94992899
:10278000F50182818D15D9F4CE0160E070E041E061
:1027900050E00E94AB28E881F981A801445F5F4FB7
:1027A0000684F785E02DCE0160E070E020E830E09F
:1027B00009E010E0A1E0EA2EF12C099505C0CE0158
:1027C00061E070E00E94A528F2E0DF16D9F0FD1567
:1027D00030F0DD2069F081E0D81649F50EC0E4E064
:1027E000DE16D1F0DE1698F0F5E0DF1601F519C01F
:1027F000892D9C2D63E671E018C0892D9C2D6AE51A
:1028000071E013C0892D9C2D61E571E00EC0892D0A
:102810009C2D62E471E009C0892D9C2D6FE271E06E
:1028200004C0892D9C2D6AE271E00E94A933D394E3
:102830008D2D90E06114710419F026E030E002C0A3
:1028400025E030E0821793070CF486CFDF91CF911B
:102850001F910F91FF90EF90DF90CF90BF90AF90BE
:102860009F907F906F900895FC018281853019F4CC
:1028700080E090E013C0813019F483E090E00EC056
:10288000882319F482E090E009C0823019F484E0D2
:1028900090E004C0833029F485E090E00E940B10A2
:1028A0000895843021F486E090E00E940B10089592
:1028B000FC0182E090E09183808308958091C805B7
:1028C0000895AF92BF92CF92DF92EF92FF920F9353
:1028D0001F93CF93DF93EB0146E851E00E94101065
:1028E000CE0161E070E00E94A528CE0162E00E9466
:1028F0009F28CE0168E270E047E150E00E949928ED
:102900008091CD05882321F0CE0161E871E003C0FC
:10291000CE016CE771E00E94A933CE0160E470E063
:102920004FE050E025E430E004E110E0BBE3EB2EA3
:10293000F12CA4E1CA2ED12CF1E0AF2EB12C0E94D3
:102940007525CE0160E470E04DE250E025E430E012
:1029500008E210E0E8E2CE2ED12C0E947525DF912E
:10296000CF911F910F91FF90EF90DF90CF90BF908C
:10297000AF90089581E090E00E940B10089580913F
:10298000CD0591E089278093CD0581EC95E00E94EB
:10299000901B0895FC0185E090E091838083128272
:1029A00008958091C8050895FC01828190E0019608
:1029B00063E070E00E943E38828308956F927F92B8
:1029C0009F92AF92BF92CF92DF92EF92FF920F93BE
:1029D0001F93CF93DF933C01EB0149EA51E00E9442
:1029E00010109C2ECD2EDD24BDE0AB2EB12CCE01DF
:1029F00065E070E0A5010E949928F30182818D15A0
:102A0000D9F4CE0160E070E041E050E00E94AB28D4
:102A1000E881F981A501415050400684F785E02DF9
:102A2000CE0160E070E020E830E009E010E0A1E0D5
:102A3000EA2EF12C099505C0CE0161E070E00E94FC
:102A4000A528F1E0DF16A9F0DF1620F082E0D81605
:102A500029F51EC08091CE05882331F4892D9C2D47
:102A600066EA71E00E94A933892D9C2D6FE971E01F
:102A700013C08091CE05882331F0892D9C2D6CE9FF
:102A800071E00E94A933892D9C2D68E971E004C092
:102A9000892D9C2D63E971E00E94A933D394EAE06B
:102AA000F0E0AE0EBF1EF3E0DF1609F0A0CFDF911D
:102AB000CF911F910F91FF90EF90DF90CF90BF903B
:102AC000AF909F907F906F9008951F93FC011281AB
:102AD000123029F481E090E00E940B1017C01123FE
:102AE00041F484E995E060E00E94102C1092CE053C
:102AF00009C0113059F484E995E061E00E94102C7E
:102B00001093CE0581EC95E00E94901B1F910895D3
:102B1000FC0186E090E09183808312820895809189
:102B2000C8050895FC01828190E001968370907041
:102B3000828308954F925F926F927F928F929F92BD
:102B4000AF92BF92CF92DF92EF92FF920F931F93BB
:102B5000CF93DF932C01EB0140ED51E00E94101068
:102B60007C2E8D2ECC24DD24BDE0AB2EB12C9C2CF4
:102B70006C2CCE0165E070E0A5010E949928F2015D
:102B800082818C15D9F4CE0160E070E041E050E024
:102B90000E94AB28E881F981A5014150504006848C
:102BA000F785E02DCE0160E070E020E830E009E03C
:102BB00010E0A1E0EA2EF12C099505C0CE0161E0FC
:102BC00070E00E94A528F3E09F1629F4872D982D28
:102BD0006BEC71E02AC08091D00590E002C0959521
:102BE00087956A94E2F780FF04C0872D982D6AE2EA
:102BF00003C0872D982D60E20E94CC3381E09816A7
:102C000059F0981620F092E0991689F40AC0872DA1
:102C1000982D65EC71E009C0872D982D6CEB71E063
:102C200004C0872D982D64EB71E00E94A9330894AD
:102C3000C11CD11CEAE0F0E0AE0EBF1EF4E0CF16DE
:102C4000D10409F094CFDF91CF911F910F91FF90A4
:102C5000EF90DF90CF90BF90AF909F908F907F903C
:102C60006F905F904F900895FC012281233029F4EA
:102C700081E090E00E940B10089581E090E002C096
:102C8000880F991F2A95E2F72091D00528272093D5
:102C9000D00581EC95E00E94901B0895FC0184E032
:102CA00090E091838083128208958091C8050895F1
:102CB000FC01828190E0019667E070E00E943E385E
:102CC000828308956F927F928F929F92AF92BF926C
:102CD000CF92DF92EF92FF920F931F93CF93DF93E8
:102CE0004C01EB0140EE51E00E941010CE0162E079
:102CF0000E949F28CE0161E070E00E94A528CE01CD
:102D000064E170E047E150E00E9499287C2E6D2E2E
:102D1000CE016091C3054AE050E00E949434CE0198
:102D200062E370E047E150E00E94992881EC95E071
:102D30006091C2050E94B51ABC01CE010E94A93360
:102D4000CE016AE570E04EE150E00E949928CE0184
:102D500061E00E949F286091C10570E06053784F48
:102D6000CE014AE050E00E948334F4018281833036
:102D700008F590E023E230E0829FB001839F700D60
:102D8000929F700D11240196A901849F9001859F47
:102D9000300D949F300D1124FB017996CE01625EB7
:102DA0007F4F4FE050E004E110E07F01F4E1CF2ECF
:102DB000D12C17C08630D0F463E2869FB001112475
:102DC0009B0126543040FB01E055F040CE016B548E
:102DD00070404DE250E008E210E07F01E8E2CE2EC4
:102DE000D12CB1E0AB2EB12C0E947525F40182816B
:102DF0008630D1F4E881F9810684F785E02DCE0193
:102E000060E070E045E350E020E830E00AE010E0E8
:102E1000A1E0EA2EF12C0995CE0160E070E041E0DE
:102E200050E00E94AB2805C0CE0161E070E00E9436
:102E3000A528CE0161E00E949F28CE0165E070E0E8
:102E400046E350E00E949928872D962D6BED71E0A6
:102E50000E94A933DF91CF911F910F91FF90EF90C6
:102E6000DF90CF90BF90AF909F908F907F906F90AA
:102E70000895AF92BF92CF92EF920F93DF93CF93CB
:102E800000D000D000D0CDB7DEB7FC0192819630E3
:102E900029F481E090E00E940B1052C08091C1059E
:102EA000E82FF0E0E053F84F4091C2052091C305B0
:102EB000923011F4319625C0953011F4319721C02C
:102EC000913039F4842F6CE00E941E38492F4F5FF7
:102ED00018C0943031F4413011F44CE012C041502C
:102EE00010C0992339F4822F6FE10E941E38292FD8
:102EF0002F5F07C0933029F4213011F42FE101C076
:102F000021505E010894A11CB11CC501BF010091B4
:102F1000C405E090C505C090C6050E947620A1ECCE
:102F2000B5E0F50186E001900D928150E1F781E076
:102F30008093C7058093C80581EC95E00E947621B7
:102F400026960FB6F894DEBF0FBECDBFCF91DF91AE
:102F50000F91EF90CF90BF90AF900895FC0183E068
:102F600090E091838083128208958091C80508952E
:102F7000FC01828190E0019665E070E00E943E389D
:102F8000828308954F925F926F927F928F929F9269
:102F9000AF92BF92CF92DF92EF92FF920F931F9367
:102FA000DF93CF93CDB7DEB729970FB6F894DEBF86
:102FB0000FBECDBF3C014B0148EF51E00E94101005
:102FC000C40162E00E949F28C40161E070E00E9499
:102FD000A528C40164E170E047E150E00E9499280F
:102FE0004DB75EB74A5050400FB6F8945EBF0FBE63
:102FF0004DBFEDB7FEB731968E010F5F1F4FADB7D6
:10300000BEB712961C930E93119789E090E09383BC
:1030100082838EEE91E0958384838091C4058683BC
:1030200017828091C505808711860E948B04582CD9
:10303000492CEDB7FEB73A960FB6F894FEBF0FBE17
:10304000EDBFC401B8010E94C434D30112968C9123
:10305000823008F590E023E230E0829FB001839F48
:10306000700D929F700D11240196F9018E9F9001B1
:103070008F9F300D9E9F300D1124FB017996C40166
:10308000625E7F4F4FE050E004E110E07F01F4E129
:10309000CF2ED12C16C08430C8F463E2869FB001D5
:1030A00011249B0123523040FB01BD97C40168529B
:1030B00070404DE250E008E210E07F01E8E2CE2EE1
:1030C000D12CB1E0AB2EB12C0E947525D301129604
:1030D0008C918430D9F4D401ED91FC910684F7856C
:1030E000E02DC40160E070E045E350E020E830E00E
:1030F0000AE010E0A1E0EA2EF12C0995C40160E09D
:1031000070E041E050E00E94AB2805C0C40161E0DE
:1031100070E00E94A528C40161E00E949F28C401BC
:1031200065E070E046E350E00E949928852D942DDB
:1031300069EE71E00E94A93329960FB6F894DEBFBC
:103140000FBECDBFCF91DF911F910F91FF90EF90F8
:10315000DF90CF90BF90AF909F908F907F906F90B7
:103160005F904F900895AF92BF92CF92EF920F93DE
:10317000DF93CF9300D000D000D0CDB7DEB7FC01F5
:103180008281843029F481E090E00E940B104CC0D1
:103190000091C4053091C505882349F4802F90E043
:1031A000019668E170E00E943E38082F1AC0813015
:1031B00049F4832F90E001966CE370E00E943E3862
:1031C000382F0FC0823031F4002311F407E109C019
:1031D000015007C0833029F4332311F43BE301C0CD
:1031E00031506091C10570E06053784F5E010894E2
:1031F000A11CB11CC5014091C2052091C305E32E5D
:10320000CC240E947620A1ECB5E0F50186E0019087
:103210000D928150E1F781E08093C7058093C80546
:1032200081EC95E00E94762126960FB6F894DEBFD9
:103230000FBECDBFCF91DF910F91EF90CF90BF9098
:10324000AF900895FC01718360835383428382E0D1
:1032500084838EE0858316820895FC0180819181AC
:10326000892B19F447FF1DC002C01416D4F4222381
:1032700069F04581262F30E08CE390E0841B9109B2
:103280008217930714F4641B01C0640F858186952F
:1032900042815381480F511D262F30E042175307BA
:1032A00011F4168207C02417350714F48FEF01C0FC
:1032B00081E08683228133818581A901480F511DD8
:1032C000403451051CF08681813031F0121613060E
:1032D00024F086818F3F09F416822681332727FD4B
:1032E000309582819381820F931F93838283089507
:1032F000EF92FF920F931F93CF93DF93FC01DB01BB
:103300008D919C91119760817181428153812481BB
:103310000581EC01EE85FF85CD0130E010E0A1E0F4
:10332000EA2EF12C0995DF91CF911F910F91FF901B
:10333000EF9008958CE895E062E00E942F0880E904
:1033400095E063E00E942F0884E995E064E00E9424
:103350000D2E81EC95E00E94C31B08951F938CE80D
:1033600095E00E944308882309F441C08CE895E069
:103370000E943F088823D9F18091D7059091D80504
:103380000E94061211E080E995E00E94430888231C
:1033900069F080E995E00E943F08882339F0809128
:1033A000D7059091D8050E94CF1111E00E944411D9
:1033B00081EC95E00E94581B8091D7059091D8052B
:1033C0000E947412882311F4112399F084E995E086
:1033D0000E947A2B8091D7059091D80564E975E019
:1033E0000E943D1284E995E00E94322C02C010E058
:1033F000CACF1F9108950F931F93DF93CF9300D0EF
:1034000000D000D0CDB7DEB78FE297E040E855E2BC
:1034100060E070E00E94E53181E10E944F300E943F
:1034200050358FE196E00E942B1D84E995E062E023
:103430004CE321E00E94E72C84E995E00E947A2B7E
:1034400084E995E062E00E94B42880EC95E00E9457
:103450005021882369F48E010F5F1F4FC80169E274
:1034600072E040E252E00E94EE21C8010E94762103
:1034700082E060E00E94713083E060E00E94713081
:1034800080E06BEA7AE143E050E00E94DC2E81E0CC
:1034900060EB7AE143E050E00E94DC2E84E995E0A5
:1034A00062E00E949F2884E995E061E070E00E945C
:1034B000A52884E995E065E070E044E150E00E94D1
:1034C000992884E995E065E172E00E94A93384E9D6
:1034D00095E061E00E949F2884E995E062E470E055
:1034E00040E350E00E94992884E995E06AE072E0A8
:1034F0000E94A93384E995E06EE470E048E350E06F
:103500000E94992884E995E061E072E00E94A93365
:1035100084E995E00E94322C60ED77E080E090E055
:103520000E94BB2F84E995E06091CE050E94102C8B
:1035300081EC95E00E94581B80E090E00E940B1007
:1035400026960FB6F894DEBF0FBECDBFCF91DF91A8
:103550001F910F91089580E995E00E943A0808951F
:103560008CE895E00E943A080895673079F1683058
:1035700070F4643011F1653028F46230C1F06330CA
:1035800099F418C06530E1F0663071F41CC06A30FF
:1035900031F16B3028F46830E1F0693029F41CC057
:1035A0006B3001F16C3009F12DE732E020C029E7E2
:1035B00032E01DC025E732E01AC021E732E017C033
:1035C0002DE632E014C029E632E011C025E632E0F3
:1035D0000EC021E632E00BC02DE532E008C029E53F
:1035E00032E005C025E532E002C021E532E0C90144
:1035F00008956330A1F0643028F4613051F06230F6
:10360000D1F40AC0653089F0653060F0663099F415
:103610000FC02DE432E011C029E432E00EC025E4F1
:1036200032E00BC021E432E008C02DE332E005C0F7
:1036300029E332E002C025E332E0C9010895CF92C8
:10364000DF92FF920F931F936C010FE116E0C80108
:1036500069E470E042E050E00E94271DC8010E942A
:10366000641CF82EC8010E94641C3F2D20E090E0ED
:10367000282B392B84E0359527958A95E1F7442747
:1036800037FD4095542FCA01B9010E94BB3620E096
:1036900030E040E85DE30E949C37F6016087718767
:1036A000828793871F910F91FF90DF90CF900895AD
:1036B0001F93CF93DF93EC010E94AD2F2A893B89A2
:1036C0004C895D89621B730B840B950B695E73409B
:1036D0008040904028F42115310541055105D1F471
:1036E0001C810E949720288339834A835B836C83E3
:1036F0007D830E94AD2F6A8B7B8B8C8B9D8B90E0A2
:103700008C81811391E09F8381E08E83CE010E94A2
:103710001F1B02C01F821E82DF91CF911F9108954F
:10372000CF93DF93EC0189E996E060E070E043E439
:103730000E94A51F4C858D858111426089E996E024
:1037400061E070E00E94A51F89E996E062E070E008
:103750004E850E94A51F89E996E063E070E04F85E1
:103760000E94A51F89E996E064E070E048890E9404
:10377000A51F498989E996E065E070E00E94A51FD0
:10378000DF91CF9108950F931F93CF93DF93EC01B7
:1037900040E050E060E070E00E94E51F1E821F8262
:1037A00080E090E0A0E0B0E088879987AA87BB8797
:1037B0001C861D861E868FEF8F87198A188A1A8AA3
:1037C0001B8A1C8A1D8A89E996E060E070E00E94ED
:1037D0009E1F082F8154833078F489E996E061E0D8
:1037E00070E00E949E1F90E09C01217030702C8739
:1037F0009695879581708D87802F8254823038F41A
:1038000089E996E062E070E00E949E1F8E87033493
:10381000D9F489E996E063E070E00E949E1F8F87EB
:1038200089E996E064E070E00E949E1F082F89E914
:1038300096E065E070E00E949E1F382F20E010E0C7
:10384000202B312B398B288BDF91CF911F910F913A
:1038500008952CB5382F33702C7F322B3CBD2DB5FD
:1038600090E0959587959595879581702E7F822B11
:103870008DBD08958AE061E00E94B0308AE061E089
:103880000E9471308CB580618CBD8CB580648CBD1C
:103890008DE061E00E9471308BE061E00E94713048
:1038A000089581E080931E066093FB0510921C062C
:1038B00010921D0608952091FA0530E08091F905D7
:1038C000281B3109C90108954091F9058091FA0535
:1038D000481718F02FEF3FEF0AC0E42FF0E0E7524F
:1038E000FA4F8081282F30E04F5F4093F905C901DE
:1038F0000895E091F9058091FA05E81718F0EFEFC7
:10390000FFEF06C0F0E0E752FA4F8081E82FF0E0C9
:10391000CF0108950895109222061092210688EE94
:1039200093E0A0E0B0E08093230690932406A09358
:103930002506B09326068DE395E0909320068093AC
:103940001F060895CF92DF92EF92FF920F931F937D
:10395000CF93DF937C016B018A0180911E0688233F
:10396000A1F0C0E0D0E00DC0D701ED91FC91D601EF
:10397000AC0FBD1F0190F081E02DC7016C9109953E
:103980002196C017D10780F304C0CB01642F0E9499
:10399000D41DC801DF91CF911F910F91FF90EF903F
:1039A000DF90CF900895DF93CF930F92CDB7DEB71E
:1039B000FC01698380911E068823C9F080911D0651
:1039C000803238F081E090E09383828320E030E021
:1039D00015C080911C06E82FF0E0E450FA4F998161
:1039E00090838F5F80931C0680931D0605C0CE01D7
:1039F000019661E00E94D41D21E030E0C9010F90E2
:103A0000CF91DF9108950F93062F8091FB056CEF06
:103A100075E040911D0621E00E947F1D10921C065A
:103A200010921D0610921E060F91089561E00E94EB
:103A3000031D0895413208F040E2862F69ED75E0DC
:103A40000E94361D1092F9058093FA05089521E031
:103A50000E941A1D08951092F9051092FA0510920D
:103A60001C0610921D060E94801F0895382F4132B7
:103A700010F040E042C080912B068823E1F791E0EE
:103A800090932B0620932D068FEF8093980610922B
:103A900053064150409354064F5F90932C068091FB
:103AA0002C06330F832B80932C0680912E068130B9
:103AB00041F410922E0680912C068093BB0085EC79
:103AC00001C085EE8093BC0080912B068130E1F32C
:103AD00080915306841710F44091530620E030E0A3
:103AE0000AC0FB01E20FF31FD901AD5CB94F8C9105
:103AF00080832F5F3F4F2417A0F3842F08950F93E7
:103B00001F93582F122F413210F081E04AC080914C
:103B10002B068823E1F782E080932B0600932D0685
:103B20008FEF809398061092530640935406A3E3B8
:103B3000B6E0FB0102C081918D938E2F861B841706
:103B4000D0F310922C0680912C06550F852B809374
:103B50002C0680912E06813041F410922E06809121
:103B60002C068093BB0085EC01C085EE8093BC00E1
:103B7000112321F080912B068230E1F38091980689
:103B80008F3F11F480E00DC080919806803211F4CF
:103B900082E007C080919806803311F084E001C074
:103BA00083E01F910F910895482F613210F081E05A
:103BB000089580912B06843011F082E0089560937F
:103BC0007606A5E5B6E0842F9C01F90102C081913B
:103BD0008D938E2F841B8617D0F380E008951F925B
:103BE0000F920FB60F9211242F933F934F935F9331
:103BF0006F937F938F939F93AF93BF93EF93FF93B5
:103C00008091B90090E0887F90708036910509F42A
:103C1000F2C081369105CCF58832910509F47BC05C
:103C200089329105B4F48031910509F46FC0813176
:103C300091053CF4009709F447C1089709F04FC17A
:103C400065C08831910509F466C0809709F047C1C5
:103C500082C08034910509F4A4C08134910544F4F4
:103C60008033910509F482C0C89709F038C189C032
:103C70008035910509F489C08835910509F496C00D
:103C80008834910509F02BC1AEC08839910509F43B
:103C900013C189399105ECF48837910509F4ABC05B
:103CA000893791054CF48836910509F4A4C0803712
:103CB000910509F014C19FC08838910509F4FCC032
:103CC0008039910509F49DC08038910509F007C13C
:103CD00098C0803B910509F4C6C0813B91054CF426
:103CE000803A910509F49FC0883A910509F0F7C020
:103CF000BAC0803C910509F4E3C0883C910509F401
:103D0000DFC0883B910509F0EAC0C2C080912C0653
:103D10008093BB00CFC090915306809154069817B2
:103D200068F490915306E92FF0E0ED5CF94F808143
:103D30008093BB009F5F90935306BCC080912D067B
:103D4000882309F44BC085ED8093BC008091BC00B2
:103D500084FDFCCFC2C080E28093980685ED8093FD
:103D6000BC008091BC0084FDFCCFB7C080E3809391
:103D7000980685ED8093BC008091BC0084FDFCCF4B
:103D8000ACC088E3809398069BC0809153069091C5
:103D9000BB00E82FF0E0ED5CF94F90838F5F8093DC
:103DA0005306909153068091540682C08091530629
:103DB0009091BB00E82FF0E0ED5CF94F90838F5FAE
:103DC0008093530680912D06882341F085ED8093E2
:103DD000BC008091BC0084FDFCCF7FC081E080935B
:103DE0002E0684EA6EC085ED8093BC008091BC00F5
:103DF00084FDFCCF72C083E080932B06109297065F
:103E000059C080919706803208F056C0809197067D
:103E10009091BB00E82FF0E0E958F94F90838F5F55
:103E20008093970647C080919706803230F4E091E6
:103E30009706F0E0E958F94F108285ED8093BC00B9
:103E40008091BC0084FDFCCF10922B0660919706F8
:103E5000E0913106F091320687E796E070E009952F
:103E6000109297062DC084E080932B061092750661
:103E700010927606E0912F06F09130060995809118
:103E80007606882329F481E0809376061092550601
:103E900090917506E92FF0E0EB5AF94F80818093FD
:103EA000BB009F5F90937506909175068091760692
:103EB000981710F485EC01C085E88093BC000FC012
:103EC00085EC8093BC0009C01092980685ED809324
:103ED000BC008091BC0084FDFCCF10922B06FF91AA
:103EE000EF91BF91AF919F918F917F916F915F9172
:103EF0004F913F912F910F900FBE0F901F901895EB
:103F000010922B0681E080932D0610922E0682E1FE
:103F100061E00E94B03083E161E00E94B030E9EBE3
:103F2000F0E080818E7F808380818D7F808380E23E
:103F30008093B80085E48093BC000895F999FECF82
:103F400072BD61BDF89A80B50895F999FECF1FBA88
:103F500072BD61BD40BD0FB6F894FA9AF99A0FBED2
:103F60000895DC0187E0A03DB80710F0A05DB740E0
:103F700050E021E832E091E007C0F9018491480F58
:103F8000511D9F5F2F5F3F4F9617B8F3633038F096
:103F9000CD0183709070892B11F44F5F5F4F8DE6D8
:103FA00091E0A89F9001A99F300DB89F300D11247A
:103FB000215030401396B695A795B695A7952A0F30
:103FC0003B1F240F351FC9010895EF92FF920F93F5
:103FD0001F93CF93DF93EC017A018B0180E89CEB78
:103FE000A2E9B7ECE80EF91E0A1F1B1FC801B701B2
:103FF0002CE330E040E050E00E9451386D83C8016E
:10400000B7012CE330E040E050E00E945138122F1D
:10401000032FF42EE52E622F732F842F952F2CE380
:1040200030E040E050E00E9451386C83612F702FE7
:104030008F2D9E2D2CE330E040E050E00E9451385F
:10404000122F032FF42EE52E622F732F842F952F1E
:1040500028E130E040E050E00E9451386B83612F4E
:10406000702F8F2D9E2D28E130E040E050E00E941F
:10407000513860E0A3E9BEEF70E0862F90E08370D6
:104080009070892B09F471E0E62FEF5F472F50E025
:10409000CA0183599E4F2817390738F0CD01841B78
:1040A000950B280F391F6E2FE7CF688341E0E42F6F
:1040B000F0E0E058FD4F8491772319F0423009F485
:1040C0008F5F90E0542F5F5F2817390720F0281B7F
:1040D000390B452FECCF4983822F8F5F8A83DF9185
:1040E000CF911F910F91FF90EF900895CF92EF9293
:1040F0000F93FC0187E0603D780710F0605D77402A
:104100006083418322830383E482C5820F91EF9011
:10411000CF900895FC01808190E0618142810E94EE
:10412000B11F069667E070E00E942A380895BF929A
:10413000CF92DF92EF92FF920F931F93DF93CF9373
:1041400000D000D000D0CDB7DEB70FE116E0C80137
:1041500068E670E00E94511CC80160E00E94D31C18
:10416000C8010E94161DC80168E670E047E050E0F3
:104170000E94271DC8010E94641C9FE7B92EB82227
:10418000C8010E94641CC82EC8010E94641CD82E5D
:10419000C8010E94641CC8010E94641CE82EC8016A
:1041A0000E94641CF82EC8010E94641C282F30E075
:1041B000B4E035952795BA95E1F74AEF5FEFB9017D
:1041C000649F9001659F300D749F300D1124820F04
:1041D00090E02B2D30E0A4E035952795AA95E1F7E6
:1041E000B901649F9001659F300D749F300D1124BB
:1041F000B20E2C2D30E0F4E035952795FA95E1F7D5
:10420000B901649F9001659F300D749F300D11249A
:10421000C20E2D2D30E0E4E035952795EA95E1F7C3
:10422000B901649F9001659F300D749F300D11247A
:10423000D20E2E2D30E074E0359527957A95E1F772
:10424000B901649F9001659F300D749F300D11245A
:10425000E20E2F2D30E064E0359527956A95E1F761
:10426000B901649F9001659F300D749F300D11243A
:10427000F20E282F3F2D4E2D5D2D6C2D7B2D80E0D5
:1042800026960FB6F894DEBF0FBECDBFCF91DF915B
:104290001F910F91FF90EF90DF90CF90BF90089506
:1042A0008FE196E068E670E00E94511C8FE196E095
:1042B00060E00E94D31C8FE196E00E94161D8FE102
:1042C00096E068E670E041E050E00E94271D8FE133
:1042D00096E00E94641C20E090E0880F892F881FE0
:1042E000990B892B09F421E0822F0895DF92EF9238
:1042F000FF920F931F937C010FE116E0C80168E65F
:1043000070E00E94511CC80160E00E94D31CF701BC
:104310002581822F6AE00E941E3846E0D42E8D9DB2
:10432000C0011124280FC801622F0E94D31CF7017D
:104330002481822F6AE00E941E388D9DC0011124C5
:10434000280FC801622F0E94D31CF7012381822FFE
:104350006AE00E941E388D9DC0011124280FC801FB
:10436000622F0E94D31CC80160E00E94D31CF70199
:104370002281822F6AE00E941E388D9DC001112487
:10438000280FC801622F0E94D31CF7012181822FC0
:104390006AE00E941E388D9DC0011124280FC801BB
:1043A000622F0E94D31CF7012081822F6AE00E94B5
:1043B0001E388D9DC0011124280FC801622F0E9454
:1043C000D31CC80160E00E94D31CC8010E94161DC6
:1043D0001F910F91FF90EF90DF900895EF92FF9261
:1043E0000F931F93DF93CF93CDB7DEB72B970FB605
:1043F000F894DEBF0FBECDBF8C017A01CE010196CD
:104400004BE050E00E9482048A8580538A3008F095
:1044100080E02B8520533AE0839FC0011124280FB0
:10442000F801208389818A34A9F08B343CF48434E8
:10443000B1F18634E9F08134A9F51CC08E3469F1FC
:104440008F341CF48D3471F51CC08F3419F1833511
:1044500049F51EC08A81813611F481E021C08B812B
:104460008E3611F087E001C086E0F801818318C024
:1044700082E016C08B81823711F088E011C084E0A1
:104480000FC08B81823711F085E00AC083E008C03D
:1044900089E006C0F801318305C08BE001C08CE0E3
:1044A000F80181839D8190539A3008F090E02E812D
:1044B00020538AE0989FC0011124280FF80122831D
:1044C000CE010196B70148E050E00E948204998134
:1044D00090539A3008F090E02A8120538AE0989F08
:1044E000C0011124280FF80123839C8190539A3036
:1044F00008F090E02D8120538AE0989FC00111249C
:10450000280FF80124839F8190539A3008F090E09F
:10451000288520538AE0989FC0011124280FF801B4
:1045200025832B960FB6F894DEBF0FBECDBFCF917B
:10453000DF911F910F91FF90EF900895FC0113827E
:1045400012828DE495E09183808375836483578321
:1045500046837187608753874287158A158614863C
:104560001786168621E0248B8FEF9FEF938B828B2B
:10457000918B808B268B178A08952F923F924F92B2
:104580005F926F927F928F929F92AF92BF92CF92E3
:10459000DF92EF92FF920F931F93DF93CF93CDB7EC
:1045A000DEB728970FB6F894DEBF0FBECDBF988751
:1045B0008F831B012A017901580121E030E02E1977
:1045C0003F093E832D83C701880F991FAA27BB2768
:1045D000A81BB90BBA83A983AF81B885ED91FC9173
:1045E0001197A701440D551D0480F581E02DCD01E3
:1045F00098010995AF81B885ED91FC911197A201C1
:104600004E195F090480F581E02DCD01B1019801BB
:104610000995AF81B885ED91FC911197B701620DB5
:10462000731D0480F581E02DCD01A201980109954B
:10463000AF81B885ED91FC911197B1016E197F0999
:104640000480F581E02DCD01A20198010995370183
:10465000E1E0F0E0FC83EB83882499249EC02D8167
:104660003E8137FD0CC008946108710889819A81E8
:1046700002969A838983280F391F3E832D830894DD
:10468000811C911CAB81BC811296BC83AB83ED81F4
:10469000FE81EA0FFB1FFE83ED836401C20CD31C75
:1046A0008301040D151DAF81B885ED91FC91119723
:1046B0000480F581E02DCD01B601A8019501099591
:1046C0007101E818F908AF81B885ED91FC91119757
:1046D0000480F581E02DCD01B701A8019501099570
:1046E000820106191709AF81B885ED91FC911197E8
:1046F0000480F581E02DCD01B601A8019501099551
:10470000AF81B885ED91FC9111970480F581E02D82
:10471000CD01B701A801950109956301C20CD31C15
:104720008401040D151DAF81B885ED91FC911197A1
:104730000480F581E02DCD01B601A8019501099510
:104740007101E618F708AF81B885ED91FC911197DA
:104750000480F581E02DCD01B701A80195010995EF
:10476000820108191909AF81B885ED91FC91119763
:104770000480F581E02DCD01B601A80195010995D0
:10478000AF81B885ED91FC9111970480F581E02D02
:10479000CD01B701A80195010995861497040CF481
:1047A0005ECF28960FB6F894DEBF0FBECDBFCF9177
:1047B000DF911F910F91FF90EF90DF90CF90BF900E
:1047C000AF909F908F907F906F905F904F903F90B1
:1047D0002F9008952F923F924F925F926F927F9207
:1047E0008F929F92AF92BF92CF92DF92EF92FF9201
:1047F0000F931F93DF93CF9300D000D0CDB7DEB7D8
:104800003C017C836B836A015901FA82E98222248C
:1048100033249801241B350B37FF03C030952195B5
:104820003F4FC5014B815C81841B950B97FF03C0F3
:10483000909581959F4F821793075CF481E0282E15
:10484000312CC80185015C018B819C81DC82CB828B
:104850006C018B819C81A816B90644F4C8018601BD
:104860006C018B819C81BC82AB825C012501AB8198
:10487000BC814A1A5B0A7801EC18FD08F7FE04C0F7
:10488000F094E194F108F394C016D10624F0882442
:104890008A94982C03C0B1E08B2E912CC20162E067
:1048A00070E00E943E388B0125C0D301ED91FC9150
:1048B0002114310441F00480F581E02DC301B601DB
:1048C0004B815C8107C00480F581E02DC3016B81C1
:1048D0007C81A60129813A8109950E191F0917FFCC
:1048E00004C0C80CD91C040D151DEB81FC81319648
:1048F000FC83EB834B815C81A416B506B4F60F9064
:104900000F900F900F90CF91DF911F910F91FF901B
:10491000EF90DF90CF90BF90AF909F908F907F905F
:104920006F905F904F903F902F9008954F925F92BD
:104930006F927F928F929F92AF92BF92CF92DF92AF
:10494000EF92FF920F931F936C015B014A013901B3
:104950002801DC01ED91FC910284F385E02D8701B3
:104960000995D601ED91FC91A40141505040440DB0
:10497000551D0284F385E02DC601B501930109950B
:10498000D601ED91FC910084F185E02DC601B501C1
:10499000A40192010995D601ED91FC910894A1081A
:1049A000B108A60CB71C0084F185E02DC601B50145
:1049B000A401920109951F910F91FF90EF90DF9054
:1049C000CF90BF90AF909F908F907F906F905F90AF
:1049D0004F900895CF92DF92EF92FF920F931F9323
:1049E000DC016B017801ED91FC918A0101501040CE
:1049F000020F131F0680F781E02D960109951F9184
:104A00000F91FF90EF90DF90CF900895CF92DF92BB
:104A1000EF92FF920F931F93DC016A01C9017801A5
:104A2000ED91FC9111979B0121503040280F391FC7
:104A30000680F781E02DCD01860109951F910F9128
:104A4000FF90EF90DF90CF9008956F927F928F92BA
:104A50009F92AF92BF92CF92DF92EF92FF920F930D
:104A60001F93CF93DF935C013A0169014801EB0189
:104A7000C60ED71E0DC0D501ED91FC910084F185C5
:104A8000E02DC501BE01A30194018701099521967E
:104A9000CC15DD0584F3DF91CF911F910F91FF902D
:104AA000EF90DF90CF90BF90AF909F908F907F90CE
:104AB0006F900895EF92FF920F931F93FC017B017B
:104AC000A081B18120853185028513851E960D90C8
:104AD000BC91A02D60E070E040E050E0FD01099540
:104AE0001F910F91FF90EF9008952F923F924F9258
:104AF0005F926F927F928F929F92AF92BF92CF926E
:104B0000DF92EF92FF920F931F93DF93CF93CDB776
:104B1000DEB7E6970FB6F894DEBF0FBECDBF9C8719
:104B20008B877E876D871A0139011CAB0BABD88A46
:104B3000CF86BA8AA98A0417150744F43B013E8739
:104B40002D878BA99CA95CAB4BAB1C012BA93CA965
:104B50004F855889421753075CF4C70173013C0124
:104B60008F8598896BA97CA9788B6F879CAB8BAB61
:104B70008BA99CA98215930554F4C3016D847E848E
:104B80009E878D878BA99CA93CAA2BAA1C01AF8567
:104B9000B8892A163B0671F5ED85FE856E167F06EF
:104BA0001CF4B3019F010BC02D853E8526153705EA
:104BB0001CF4B901930103C06D857E859B01E61647
:104BC000F70614F4B70104C02E153F050CF4970145
:104BD000AB85BC85ED91FC9111972F5F3F4F261B54
:104BE000370B0284F385E02DCD01A10109891A89D3
:104BF00009953BC19301ED85FE852E1B3F0B8BA9CB
:104C00009CA982199309A7014E1B5F0B58874F83FC
:104C10006F857889621973097E836D83D701A61920
:104C2000B709BC83AB83EF85F8894BA95CA9E41B6A
:104C3000F50BFA83E9836F8578894617570719F4CE
:104C40005A87498705C0ABA9BCA91197BA87A9871C
:104C50002101882499245401CC24DD247601AC015F
:104C6000662757FD6095762F4BA35CA36DA37EA3AB
:104C70006D817E81882777FD8095982F6FA378A717
:104C800089A79AA7C901AA2797FDA095BA2F8BA734
:104C90009CA7ADA7BEA72F813885442737FD409537
:104CA000542F2FA738AB49AB5AAB44C0C501B40150
:104CB0002BA13CA14DA15EA10E9473380D851E85DC
:104CC000020F131FC701B6012FA138A549A55AA588
:104CD0000E947338AD85BE85A20FB31FA017B10720
:104CE0001CF4CD01D8018C014BA55CA56DA57EA55A
:104CF000840E951EA61EB71E6FA578A989A99AA92C
:104D0000C60ED71EE81EF91EEB85FC8580819181B9
:104D10001196A01BB10BFC010284F385E02D8B855D
:104D20009C85B801A2019D0109891A8909950894F9
:104D3000411C511C29853A85241535050CF0B6CF48
:104D4000C2014BA95CA9841B950BBC01AB81BC8142
:104D50006A9FC0016B9F900D7A9F900D11244C01AA
:104D6000AA2497FCA094BA2CC20182199309FC01D1
:104D70002F813885E29FC001E39F900DF29F900D37
:104D800011246C01EE24D7FCE094FE2C49815A8159
:104D9000662757FD6095762F4B8B5C8B6D8B7E8BDA
:104DA0006D817E81882777FD8095982F6F8B788F16
:104DB000898F9A8FCD01AA2797FDA095BA2F8B8F47
:104DC0009C8FAD8FBE8F442737FD4095542F2F8F7A
:104DD00038A349A35AA343C0C501B4012B893C8918
:104DE0004D895E890E9473388301020F131FC7012A
:104DF000B6012F89388D498D5A8D0E947338AD8543
:104E0000BE85A20FB31FA017B1071CF4CD01D801B6
:104E10008C014B8D5C8D6D8D7E8D840E951EA61E36
:104E2000B71E6F8D78A189A19AA1C60ED71EE81E64
:104E3000F91EEB85FC85808191811196A01BB10B39
:104E4000FC01228433848B859C85B801A2019D01DD
:104E500009891A89F10109950894411C511C2F8573
:104E60003889241535050CF0B7CFE6960FB6F894BF
:104E7000DEBF0FBECDBFCF91DF911F910F91FF908D
:104E8000EF90DF90CF90BF90AF909F908F907F90EA
:104E90006F905F904F903F902F9008952F923F9288
:104EA0004F925F926F927F928F929F92AF92BF923A
:104EB000CF92DF92EF92FF920F931F93DF93CF93E6
:104EC000CDB7DEB72F970FB6F894DEBF0FBECDBFBC
:104ED0005C015E834D8318870F83FA86E986CB8653
:104EE000DC0118968D919C911997681779070CF041
:104EF000ABC01A968D919C911B97481759070CF0DF
:104F0000A3C0EC2DF0E0FF87EE87CF01880F991F3B
:104F10008E0F9F1F880F991F860F971F181619064F
:104F20000CF092C0CF0103E0880F991F0A95E1F7BA
:104F3000840F951F181619060CF086C057968C9191
:104F4000882319F4203B08F02F5F85E0289FA001FB
:104F500011245A8349832B011B011C825C8155302B
:104F600011F480E005C0E981FA81E357FD4F849197
:104F70002C863D866D807E8043011B82C82EDD24F9
:104F800080FF1CC0D501ED91FC91BB85B13049F487
:104F90000480F581E02DC501B201A4012F8138857F
:104FA00022C00684F785E02DC5016C857D85A301AF
:104FB0002E853F858901EF80F88423C0E985FA8535
:104FC0002F813885E217F307E9F0D501ED91FC91C7
:104FD000BB85B13051F40480F581E02DC501B201EB
:104FE000A40129853A8509950DC00684F785E02D31
:104FF000C5016C857D85A3012E853F858901E984E6
:10500000FA840995EB81EF5FEB832E853F85620E75
:10501000731E0894811C911CE83021F0D594C7942C
:105020008C2DACCF3C813F5F3C834E855F85240E49
:10503000351E0894411C511C89819A8101969A83DE
:105040008983363009F08ACF2F960FB6F894DEBFE9
:105050000FBECDBFCF91DF911F910F91FF90EF90C9
:10506000DF90CF90BF90AF909F908F907F906F9088
:105070005F904F903F902F900895CF92EF92FF92C4
:105080000F931F93CF93DF93EC01262F6A3061F4C7
:105090002C8930E083E0220F331F8A95E1F78E855B
:1050A0009F85820F931F37C06D30C9F16C857D8558
:1050B0004E855F8508891989EA88FB88CC880E941B
:1050C0004E272C8986E0289FB00111248C859D8570
:1050D000680F791F7D876C878E89882301F1422FA5
:1050E00050E08AEF9FEF9C01429FC001439F900DCB
:1050F000529F900D112428853985820F931F8617A2
:1051000097076CF403E0440F551F0A95E1F78E856D
:105110009F85840F951F9F878E871D861C8681E043
:1051200090E0DF91CF911F910F91FF90EF90CF9082
:105130000895FC0175876487578746870895FC01A9
:10514000662309F461E0648B0895FC01738B628B24
:10515000718B608B0895FC01718B608B538B428B3C
:105160000895FC0185890895FC016370658B6130A9
:1051700081F0613028F0623019F0633091F409C099
:1051800084819581918780878681978193878287A3
:1051900008958681978191878087848195819387FF
:1051A00082870895FC01808591850895FC018285A0
:1051B000938508950895EF92FF920F931F93CF93D5
:1051C000DF93DC01EB017A0155968C915597823083
:1051D00061F08330F1F0813031F51496ED91FC915E
:1051E00015973197E41BF50B31C116968D919C9163
:1051F00017970197AC014E195F097A0114968D91AA
:105200009C911597AC01461B570BEA01C21BD30BAF
:105210000AC016966D917C9117976C1B7D0B621BD3
:10522000730BFA0113C1F7FEAEC012C114968D9133
:105230009C911597E817F9070CF00AC177FF04C095
:10524000260F371F60E070E016964D915C9117971E
:10525000C901860F971F481759071CF49A01261B8E
:10526000370B121613060CF0F3C0962F862F869577
:1052700086958695A82FB0E0B695BA2FAA27B79540
:10528000A795AC5FBE4FAE0FBF1F977071F138E0AE
:10529000391B432F50E0FA01E45FFA4FE0812317F6
:1052A00050F4421B51098FEF90E002C0959587950D
:1052B0004A95E2F7E8230130110539F00130110574
:1052C00038F00230110559F407C08C918E2B06C0BE
:1052D000E0958C918E2302C08C918E278C9323179E
:1052E00008F4B6C0231BA058BF4F283060F102302D
:1052F000110559F4FD01922F808180958083E0583B
:10530000FF4F98509830C0F70EC00130110511F0D2
:1053100090E001C09FEFFD01822F9083E058FF4F86
:1053200088508830D0F7822F8850282F2770869594
:105330008695869590E001969695982F8827979563
:105340008795A80FB91F222309F482C0E22FF0E04D
:10535000E770F070EC5FFA4F20810130110541F0E9
:105360000130110540F00230110509F071C008C08C
:105370008C91822B03C020958C9182238C9368C0E2
:105380008C918227FBCF16968D919C911797E816EA
:10539000F9060CF05DC0D7FF04C02C0F3D1FC0E024
:1053A000D0E014964D915C911597C9018C0F9D1F0B
:1053B000481759071CF49A012C1B3D0B12161306B3
:1053C0000CF046C0C70168E070E00E943E38DB0187
:1053D000B695BA2FAA27B795A795AC5FBE4FAC0F6D
:1053E000BD1F57E0E522FF2481E090E002C0880F56
:1053F000991FEA94E2F7982F0130110551F001301E
:10540000110570F00230110519F519C08C91892B26
:105410008D93215030408FEF2F3F3807B9F718C0D8
:10542000909503C08C9189238D93215030404FEF8C
:105430002F3F3407B9F70CC08C9189278D932150E9
:1054400030405FEF2F3F3507B9F702C0F7FFEECED0
:10545000DF91CF911F910F91FF90EF9008950F93DF
:105460001F93CF93DF93DC01E90155968C915597FB
:10547000823071F0833001F1813039F514962D912D
:105480003C911597241B350B2C1B3D0BFB012BC1AD
:1054900014968D919C91159701979C01261B370BB3
:1054A000B90116968D919C9117979C01241B350B81
:1054B000A9014C1B5D0B09C01696ED91FC91179745
:1054C0003197E61BF70B9A010EC177FF61C00DC142
:1054D00016968D919C911797E817F9070CF005C166
:1054E00037FF04C0C20FD31F20E030E014964D9167
:1054F0005C911597CE01820F931F481759071CF432
:10550000EA01C21BD30B1C161D060CF0EEC0CF0126
:1055100068E070E00E943E38DB01B695BA2FAA27FA
:10552000B795A795AC5FBE4FA20FB31FE770F070A1
:1055300081E090E002C0880F991FEA95E2F7982F6A
:105540000130110559F00130110570F002301105DC
:1055500009F0CBC017C08C91892B8D9321973FEF19
:10556000CF3FD307C1F7C1C0909503C08C91892369
:105570008D9321978FEFCF3FD807C1F7B6C08C919D
:1055800089278D9321972FEFCF3FD207C1F7ADC069
:1055900014968D919C911597681779070CF0A5C00A
:1055A00057FF04C0C40FD51F40E050E016962D9160
:1055B0003C911797CE01840F951F281739071CF4CB
:1055C000E901C41BD50B1C161D060CF08EC02C2F38
:1055D000842F869586958695A82FB0E0B695BA2F2C
:1055E000AA27B795A795AC5FBE4FA60FB71F477008
:1055F00071F138E0341B432F50E0FA01E45FFA4FB9
:10560000E081C31750F44C1B51098FEF90E002C0AA
:10561000959587954A95E2F7E8230130110539F011
:105620000130110538F00230110559F407C08C9192
:105630008E2B06C0E0958C918E2302C08C918E2714
:105640008C93231708F451C0231BA058BF4F283058
:1056500060F10230110559F4FD01922F808180958F
:105660008083E058FF4F98509830C0F70EC001304B
:10567000110511F090E001C09FEFFD01822F908392
:10568000E058FF4F88508830D0F7822F8850282F5D
:10569000277086958695869590E001969695982F29
:1056A000882797958795A80FB91F2223F1F0E22F3D
:1056B000F0E0E770F070EC5FFA4F208101301105E7
:1056C00039F00130110538F00230110571F407C0CE
:1056D0008C91822B06C020958C91822302C08C91E4
:1056E00082278C9302C0F7FFF3CEDF91CF911F91F9
:1056F0000F91089580E094E0E4E0F1E0DF019C0187
:105700001D9221503040E1F708951F93DC01162FC0
:105710005A968C915A978F3F09F469C09496ED91EF
:10572000FC91959780819A969C919A97892B80837A
:105730009696ED91FC91979790819B968C919B9773
:105740008095892380839496ED91FC919597908123
:105750009A968C919A978095892380835F968C91F5
:105760005F97882331F06EBD0DB407FEFDCF8EB577
:1057700034C030E840E050E070E09296ED91FC914A
:105780009397908199968C9199978095892380839E
:10579000832F90E0862397239096ED91FC9191972B
:1057A00098962C919897892B21F08081822B808369
:1057B00004C080812095282320839296ED91FC914E
:1057C0009397808199969C919997892B80833695A0
:1057D0004F5F5F4F4830510581F69496ED91FC91F3
:1057E000959780819A969C91892B808317C05896B3
:1057F0006C91772767FD70958FE196E00E94511CB0
:105800008FE196E060E00E94D31C8FE196E0612F6B
:105810000E94D31C8FE196E00E94161D1F910895EF
:105820001F93CF93DF93EC01662311F010E006C0C5
:10583000898D813011F01FEC01C01FE9CE0161E8B4
:105840000E94852BCE01612F0E94852BDF91CF9185
:105850001F910895662311F067EA01C066EA0E946D
:10586000852B0895CF92DF92EF92FF920F931F93B3
:10587000CF93DF93EC0161E20E94852BCE0160E0C3
:105880000E94852BCE016FE70E94852BCE0162E23C
:105890000E94852BCE0160E00E94852BCE0167E03F
:1058A0000E94852B8A8D8F3F09F454C0ECA1FDA185
:1058B00080819AA5892B8083EEA1FFA180819BA581
:1058C000892B8083ECA1FDA190818AA580958923F5
:1058D0008083A4E0B1E09C918F8D882331F09EBD40
:1058E0000DB407FEFDCF8EB529C030E840E050E092
:1058F000692F70E0EAA1FBA1908189A58095892399
:105900008083832F90E086239723E8A1F9A128A51F
:10591000892B21F08081822B808304C08081209597
:1059200028232083EAA1FBA1808199A5892B80836C
:1059300036954F5F5F4F48305105E1F6119685E08F
:10594000A430B80741F6ECA1FDA180819AA5892B6E
:10595000808334C00091B8008CE08093B800EE24BE
:10596000FF24688D772767FD70958FE196E00E9490
:10597000511C8FE196E060E40E94D31C54E0C52ED8
:1059800051E0D52ECE0CDF1C10E08FE196E0F60141
:1059900061916F010E94D31C1F5F1031B1F780E14C
:1059A00090E0E80EF91E8FE196E00E94161D90E04F
:1059B000E91694E0F906A9F60093B800DF91CF91BB
:1059C0001F910F91FF90EF90DF90CF9008950F936C
:1059D0001F93CF93DF93EC01162F022F698F488F0F
:1059E0008A8D8F3F09F479C08C8D61E00E947130FF
:1059F0008E8D61E00E947130EE8D2E2F332727FDB2
:105A00003095F901E555F84FE491F0E0EE0FFF1FF6
:105A1000E956F84F859194919DA38CA32154384F5A
:105A2000F90184918AA7EC8D2E2F332727FD30951D
:105A3000F901E555F84FE491F0E0EE0FFF1FE9564C
:105A4000F84F859194919FA38EA32154384FF9016B
:105A500084918BA78F8D882309F036C08A8D61E0F1
:105A60000E9471308B8D61E00E947130EB8D2E2F82
:105A7000332727FD3095F901E555F84FE491F0E023
:105A8000EE0FFF1FE956F84F859194919BA38AA3CF
:105A90002154384FF901849189A7EA8D2E2F33279D
:105AA00027FD3095F901E555F84FE491F0E0EE0F50
:105AB000FF1FE956F84F8591949199A388A321542B
:105AC000384FF901849188A78F8D882351F00E9467
:105AD0003A1C84E00E94291C04C08FE196E00E94D9
